{
  "contracts/Raffle.sol": {
    "Raffle": {
      "abi": [
        {
          "inputs": [
            {
              "internalType": "string",
              "name": "_name",
              "type": "string"
            },
            {
              "internalType": "uint256",
              "name": "_ticketPrice",
              "type": "uint256"
            },
            {
              "internalType": "uint256",
              "name": "_ticketLimit",
              "type": "uint256"
            }
          ],
          "stateMutability": "nonpayable",
          "type": "constructor"
        },
        {
          "anonymous": false,
          "inputs": [
            {
              "components": [
                {
                  "internalType": "bytes32",
                  "name": "id",
                  "type": "bytes32"
                },
                {
                  "internalType": "address",
                  "name": "holder",
                  "type": "address"
                },
                {
                  "internalType": "uint256",
                  "name": "size",
                  "type": "uint256"
                }
              ],
              "indexed": true,
              "internalType": "struct Raffle.Ticket",
              "name": "winningTicket",
              "type": "tuple"
            }
          ],
          "name": "Closed",
          "type": "event"
        },
        {
          "anonymous": false,
          "inputs": [
            {
              "indexed": true,
              "internalType": "address",
              "name": "holder",
              "type": "address"
            }
          ],
          "name": "NewTicket",
          "type": "event"
        },
        {
          "anonymous": false,
          "inputs": [
            {
              "indexed": false,
              "internalType": "string",
              "name": "message",
              "type": "string"
            }
          ],
          "name": "Updated",
          "type": "event"
        },
        {
          "inputs": [
            {
              "internalType": "uint256",
              "name": "_size",
              "type": "uint256"
            }
          ],
          "name": "addTicket",
          "outputs": [],
          "stateMutability": "payable",
          "type": "function"
        },
        {
          "inputs": [],
          "name": "getBiggest",
          "outputs": [
            {
              "internalType": "bytes32",
              "name": "",
              "type": "bytes32"
            }
          ],
          "stateMutability": "view",
          "type": "function"
        },
        {
          "inputs": [
            {
              "internalType": "uint256",
              "name": "_index",
              "type": "uint256"
            }
          ],
          "name": "getTicket",
          "outputs": [
            {
              "components": [
                {
                  "internalType": "bytes32",
                  "name": "id",
                  "type": "bytes32"
                },
                {
                  "internalType": "address",
                  "name": "holder",
                  "type": "address"
                },
                {
                  "internalType": "uint256",
                  "name": "size",
                  "type": "uint256"
                }
              ],
              "internalType": "struct Raffle.Ticket",
              "name": "",
              "type": "tuple"
            }
          ],
          "stateMutability": "view",
          "type": "function"
        },
        {
          "inputs": [],
          "name": "getTicketCount",
          "outputs": [
            {
              "internalType": "uint256",
              "name": "",
              "type": "uint256"
            }
          ],
          "stateMutability": "view",
          "type": "function"
        },
        {
          "inputs": [],
          "name": "getTickets",
          "outputs": [
            {
              "components": [
                {
                  "internalType": "bytes32",
                  "name": "id",
                  "type": "bytes32"
                },
                {
                  "internalType": "address",
                  "name": "holder",
                  "type": "address"
                },
                {
                  "internalType": "uint256",
                  "name": "size",
                  "type": "uint256"
                }
              ],
              "internalType": "struct Raffle.Ticket[]",
              "name": "",
              "type": "tuple[]"
            }
          ],
          "stateMutability": "view",
          "type": "function"
        },
        {
          "inputs": [],
          "name": "getWinningTicket",
          "outputs": [
            {
              "components": [
                {
                  "internalType": "bytes32",
                  "name": "id",
                  "type": "bytes32"
                },
                {
                  "internalType": "address",
                  "name": "holder",
                  "type": "address"
                },
                {
                  "internalType": "uint256",
                  "name": "size",
                  "type": "uint256"
                }
              ],
              "internalType": "struct Raffle.Ticket",
              "name": "",
              "type": "tuple"
            }
          ],
          "stateMutability": "view",
          "type": "function"
        },
        {
          "inputs": [],
          "name": "isClosed",
          "outputs": [
            {
              "internalType": "bool",
              "name": "",
              "type": "bool"
            }
          ],
          "stateMutability": "view",
          "type": "function"
        },
        {
          "inputs": [],
          "name": "name",
          "outputs": [
            {
              "internalType": "string",
              "name": "",
              "type": "string"
            }
          ],
          "stateMutability": "view",
          "type": "function"
        },
        {
          "inputs": [],
          "name": "owner",
          "outputs": [
            {
              "internalType": "address",
              "name": "",
              "type": "address"
            }
          ],
          "stateMutability": "view",
          "type": "function"
        },
        {
          "inputs": [],
          "name": "reset",
          "outputs": [],
          "stateMutability": "nonpayable",
          "type": "function"
        },
        {
          "inputs": [
            {
              "internalType": "string",
              "name": "_name",
              "type": "string"
            }
          ],
          "name": "setName",
          "outputs": [],
          "stateMutability": "nonpayable",
          "type": "function"
        },
        {
          "inputs": [
            {
              "internalType": "address",
              "name": "_owner",
              "type": "address"
            }
          ],
          "name": "setOwner",
          "outputs": [],
          "stateMutability": "nonpayable",
          "type": "function"
        },
        {
          "inputs": [
            {
              "internalType": "uint256",
              "name": "_ticketLimit",
              "type": "uint256"
            }
          ],
          "name": "setTicketLimit",
          "outputs": [],
          "stateMutability": "nonpayable",
          "type": "function"
        },
        {
          "inputs": [
            {
              "internalType": "uint256",
              "name": "_ticketPrice",
              "type": "uint256"
            }
          ],
          "name": "setTicketPrice",
          "outputs": [],
          "stateMutability": "nonpayable",
          "type": "function"
        },
        {
          "inputs": [],
          "name": "ticketLimit",
          "outputs": [
            {
              "internalType": "uint256",
              "name": "",
              "type": "uint256"
            }
          ],
          "stateMutability": "view",
          "type": "function"
        },
        {
          "inputs": [],
          "name": "ticketPrice",
          "outputs": [
            {
              "internalType": "uint256",
              "name": "",
              "type": "uint256"
            }
          ],
          "stateMutability": "view",
          "type": "function"
        },
        {
          "inputs": [
            {
              "internalType": "string",
              "name": "_name",
              "type": "string"
            },
            {
              "internalType": "bool",
              "name": "_isClosed",
              "type": "bool"
            },
            {
              "internalType": "uint256",
              "name": "_ticketPrice",
              "type": "uint256"
            },
            {
              "internalType": "uint256",
              "name": "_ticketLimit",
              "type": "uint256"
            }
          ],
          "name": "update",
          "outputs": [],
          "stateMutability": "nonpayable",
          "type": "function"
        }
      ],
      "evm": {
        "bytecode": {
          "linkReferences": {},
          "object": "60806040523480156200001157600080fd5b5060405162000f7f38038062000f7f83398101604081905262000034916200011c565b82516200004990600490602086019062000076565b50600191909155600255506000805460ff19169055600380546001600160a01b031916331790556200025f565b82805462000084906200020c565b90600052602060002090601f016020900481019282620000a85760008555620000f3565b82601f10620000c357805160ff1916838001178555620000f3565b82800160010185558215620000f3579182015b82811115620000f3578251825591602001919060010190620000d6565b506200010192915062000105565b5090565b5b8082111562000101576000815560010162000106565b6000806000606084860312156200013257600080fd5b83516001600160401b03808211156200014a57600080fd5b818601915086601f8301126200015f57600080fd5b81518181111562000174576200017462000249565b604051601f8201601f19908116603f011681019083821181831017156200019f576200019f62000249565b81604052828152602093508984848701011115620001bc57600080fd5b600091505b82821015620001e05784820184015181830185015290830190620001c1565b82821115620001f25760008484830101525b928801516040909801519299979850919695505050505050565b600181811c908216806200022157607f821691505b602082108114156200024357634e487b7160e01b600052602260045260246000fd5b50919050565b634e487b7160e01b600052604160045260246000fd5b610d10806200026f6000396000f3fe6080604052600436106100fe5760003560e01c80637dc379fa11610095578063c2b6b58c11610064578063c2b6b58c146102ac578063c47f0027146102d6578063d20bf816146102f6578063d826f88f1461034d578063f26730191461036257600080fd5b80637dc379fa146102015780638da5cb5b1461024c578063a583b03414610284578063b42913191461029957600080fd5b806321c63a47116100d157806321c63a47146101945780633d3751ae146101a95780634ed02622146101c95780635e321dfc146101eb57600080fd5b806306fdde03146101035780631209b1f61461012e57806313af4035146101525780631598165014610174575b600080fd5b34801561010f57600080fd5b50610118610382565b6040516101259190610c10565b60405180910390f35b34801561013a57600080fd5b5061014460015481565b604051908152602001610125565b34801561015e57600080fd5b5061017261016d366004610a99565b610410565b005b34801561018057600080fd5b5061017261018f366004610b6a565b610449565b3480156101a057600080fd5b50600554610144565b3480156101b557600080fd5b506101726101c4366004610b6a565b610465565b3480156101d557600080fd5b506101de610481565b6040516101259190610ba5565b3480156101f757600080fd5b5061014460025481565b34801561020d57600080fd5b5061022161021c366004610b6a565b610503565b60408051825181526020808401516001600160a01b0316908201529181015190820152606001610125565b34801561025857600080fd5b5060035461026c906001600160a01b031681565b6040516001600160a01b039091168152602001610125565b34801561029057600080fd5b5061014461057c565b6101726102a7366004610b6a565b61059d565b3480156102b857600080fd5b506000546102c69060ff1681565b6040519015158152602001610125565b3480156102e257600080fd5b506101726102f1366004610ac9565b61074f565b34801561030257600080fd5b50604080516060808201835260008083526020808401829052928401528251908101835260065481526007546001600160a01b03169181019190915260085491810191909152610221565b34801561035957600080fd5b5061017261077d565b34801561036e57600080fd5b5061017261037d366004610b06565b6107e1565b6004805461038f90610c73565b80601f01602080910402602001604051908101604052809291908181526020018280546103bb90610c73565b80156104085780601f106103dd57610100808354040283529160200191610408565b820191906000526020600020905b8154815290600101906020018083116103eb57829003601f168201915b505050505081565b6003546001600160a01b0316331461042757600080fd5b600380546001600160a01b0319166001600160a01b0392909216919091179055565b6003546001600160a01b0316331461046057600080fd5b600155565b6003546001600160a01b0316331461047c57600080fd5b600255565b60606005805480602002602001604051908101604052809291908181526020016000905b828210156104fa5760008481526020908190206040805160608101825260038602909201805483526001808201546001600160a01b0316848601526002909101549183019190915290835290920191016104a5565b50505050905090565b60408051606081018252600080825260208201819052918101919091526005828154811061053357610533610cae565b60009182526020918290206040805160608101825260039093029091018054835260018101546001600160a01b0316938301939093526002909201549181019190915292915050565b6003546000906001600160a01b0316331461059657600080fd5b5060095490565b60005460ff16156105ad57600080fd5b600554604080513360601b6bffffffffffffffffffffffff1916602082015260348082019390935281518082039093018352605481019091526105f69082904290607401610b83565b60408051808303601f19018152606083018252805160208083019190912084523390840181815284840187815260058054600181018255600091825287517f036b6384b5eca791c62761152d0c79bb0604c104a5fb6f4eb0703f3154bb3db060039092029182015592517f036b6384b5eca791c62761152d0c79bb0604c104a5fb6f4eb0703f3154bb3db1840180546001600160a01b0319166001600160a01b0390921691909117905590517f036b6384b5eca791c62761152d0c79bb0604c104a5fb6f4eb0703f3154bb3db2909201919091559251919450917fbfed62eb9da96f495053d1025cce9833c1ea7d27761dca02cfea73f628f23a5091a26009548151111561073557805160098190556006556020810151600780546001600160a01b0319166001600160a01b0390921691909117905560408101516008555b6002546005541061074a5761074a600161087b565b505050565b6003546001600160a01b0316331461076657600080fd5b80516107799060049060208401906108eb565b5050565b6003546001600160a01b0316331461079457600080fd5b6107a06004600061096f565b6000805460ff19168155600181905560028190556006819055600780546001600160a01b031916905560088190556107da906005906109a9565b6000600955565b6003546001600160a01b031633146107f857600080fd5b6108018461074f565b61080a8361087b565b61081382610449565b61081c81610465565b7f221d3d4161ff7c815e25a84cf3c2ec04f54111bee80f0b06d345c834581c9da360405161086d906020808252600f908201526e2930b3333632903ab83230ba32b21760891b604082015260600190565b60405180910390a150505050565b6000805460ff191682151590811790915560ff16156108e8576040805160065481526007546001600160a01b03166020820152600854818301529051908190036060018120907ff155374bd3d5cf63edee6a98dcefddb2e72a6de0457bee440d6cf0c512f6a01b90600090a25b50565b8280546108f790610c73565b90600052602060002090601f016020900481019282610919576000855561095f565b82601f1061093257805160ff191683800117855561095f565b8280016001018555821561095f579182015b8281111561095f578251825591602001919060010190610944565b5061096b9291506109ca565b5090565b50805461097b90610c73565b6000825580601f1061098b575050565b601f0160209004906000526020600020908101906108e891906109ca565b50805460008255600302906000526020600020908101906108e891906109df565b5b8082111561096b57600081556001016109cb565b5b8082111561096b5760008082556001820180546001600160a01b031916905560028201556003016109e0565b600082601f830112610a1d57600080fd5b813567ffffffffffffffff80821115610a3857610a38610cc4565b604051601f8301601f19908116603f01168101908282118183101715610a6057610a60610cc4565b81604052838152866020858801011115610a7957600080fd5b836020870160208301376000602085830101528094505050505092915050565b600060208284031215610aab57600080fd5b81356001600160a01b0381168114610ac257600080fd5b9392505050565b600060208284031215610adb57600080fd5b813567ffffffffffffffff811115610af257600080fd5b610afe84828501610a0c565b949350505050565b60008060008060808587031215610b1c57600080fd5b843567ffffffffffffffff811115610b3357600080fd5b610b3f87828801610a0c565b94505060208501358015158114610b5557600080fd5b93969395505050506040820135916060013590565b600060208284031215610b7c57600080fd5b5035919050565b60008351610b95818460208801610c43565b9190910191825250602001919050565b6020808252825182820181905260009190848201906040850190845b81811015610c0457610bf1838551805182526020808201516001600160a01b031690830152604090810151910152565b9284019260609290920191600101610bc1565b50909695505050505050565b6020815260008251806020840152610c2f816040850160208701610c43565b601f01601f19169190910160400192915050565b60005b83811015610c5e578181015183820152602001610c46565b83811115610c6d576000848401525b50505050565b600181811c90821680610c8757607f821691505b60208210811415610ca857634e487b7160e01b600052602260045260246000fd5b50919050565b634e487b7160e01b600052603260045260246000fd5b634e487b7160e01b600052604160045260246000fdfea26469706673582212207b58ba8430dbd0b17ed60cff00df3b1a56bad9bbc783c1839e41a71d3800bb3364736f6c63430008070033",
          "opcodes": "PUSH1 0x80 PUSH1 0x40 MSTORE CALLVALUE DUP1 ISZERO PUSH3 0x11 JUMPI PUSH1 0x0 DUP1 REVERT JUMPDEST POP PUSH1 0x40 MLOAD PUSH3 0xF7F CODESIZE SUB DUP1 PUSH3 0xF7F DUP4 CODECOPY DUP2 ADD PUSH1 0x40 DUP2 SWAP1 MSTORE PUSH3 0x34 SWAP2 PUSH3 0x11C JUMP JUMPDEST DUP3 MLOAD PUSH3 0x49 SWAP1 PUSH1 0x4 SWAP1 PUSH1 0x20 DUP7 ADD SWAP1 PUSH3 0x76 JUMP JUMPDEST POP PUSH1 0x1 SWAP2 SWAP1 SWAP2 SSTORE PUSH1 0x2 SSTORE POP PUSH1 0x0 DUP1 SLOAD PUSH1 0xFF NOT AND SWAP1 SSTORE PUSH1 0x3 DUP1 SLOAD PUSH1 0x1 PUSH1 0x1 PUSH1 0xA0 SHL SUB NOT AND CALLER OR SWAP1 SSTORE PUSH3 0x25F JUMP JUMPDEST DUP3 DUP1 SLOAD PUSH3 0x84 SWAP1 PUSH3 0x20C JUMP JUMPDEST SWAP1 PUSH1 0x0 MSTORE PUSH1 0x20 PUSH1 0x0 KECCAK256 SWAP1 PUSH1 0x1F ADD PUSH1 0x20 SWAP1 DIV DUP2 ADD SWAP3 DUP3 PUSH3 0xA8 JUMPI PUSH1 0x0 DUP6 SSTORE PUSH3 0xF3 JUMP JUMPDEST DUP3 PUSH1 0x1F LT PUSH3 0xC3 JUMPI DUP1 MLOAD PUSH1 0xFF NOT AND DUP4 DUP1 ADD OR DUP6 SSTORE PUSH3 0xF3 JUMP JUMPDEST DUP3 DUP1 ADD PUSH1 0x1 ADD DUP6 SSTORE DUP3 ISZERO PUSH3 0xF3 JUMPI SWAP2 DUP3 ADD JUMPDEST DUP3 DUP2 GT ISZERO PUSH3 0xF3 JUMPI DUP3 MLOAD DUP3 SSTORE SWAP2 PUSH1 0x20 ADD SWAP2 SWAP1 PUSH1 0x1 ADD SWAP1 PUSH3 0xD6 JUMP JUMPDEST POP PUSH3 0x101 SWAP3 SWAP2 POP PUSH3 0x105 JUMP JUMPDEST POP SWAP1 JUMP JUMPDEST JUMPDEST DUP1 DUP3 GT ISZERO PUSH3 0x101 JUMPI PUSH1 0x0 DUP2 SSTORE PUSH1 0x1 ADD PUSH3 0x106 JUMP JUMPDEST PUSH1 0x0 DUP1 PUSH1 0x0 PUSH1 0x60 DUP5 DUP7 SUB SLT ISZERO PUSH3 0x132 JUMPI PUSH1 0x0 DUP1 REVERT JUMPDEST DUP4 MLOAD PUSH1 0x1 PUSH1 0x1 PUSH1 0x40 SHL SUB DUP1 DUP3 GT ISZERO PUSH3 0x14A JUMPI PUSH1 0x0 DUP1 REVERT JUMPDEST DUP2 DUP7 ADD SWAP2 POP DUP7 PUSH1 0x1F DUP4 ADD SLT PUSH3 0x15F JUMPI PUSH1 0x0 DUP1 REVERT JUMPDEST DUP2 MLOAD DUP2 DUP2 GT ISZERO PUSH3 0x174 JUMPI PUSH3 0x174 PUSH3 0x249 JUMP JUMPDEST PUSH1 0x40 MLOAD PUSH1 0x1F DUP3 ADD PUSH1 0x1F NOT SWAP1 DUP2 AND PUSH1 0x3F ADD AND DUP2 ADD SWAP1 DUP4 DUP3 GT DUP2 DUP4 LT OR ISZERO PUSH3 0x19F JUMPI PUSH3 0x19F PUSH3 0x249 JUMP JUMPDEST DUP2 PUSH1 0x40 MSTORE DUP3 DUP2 MSTORE PUSH1 0x20 SWAP4 POP DUP10 DUP5 DUP5 DUP8 ADD ADD GT ISZERO PUSH3 0x1BC JUMPI PUSH1 0x0 DUP1 REVERT JUMPDEST PUSH1 0x0 SWAP2 POP JUMPDEST DUP3 DUP3 LT ISZERO PUSH3 0x1E0 JUMPI DUP5 DUP3 ADD DUP5 ADD MLOAD DUP2 DUP4 ADD DUP6 ADD MSTORE SWAP1 DUP4 ADD SWAP1 PUSH3 0x1C1 JUMP JUMPDEST DUP3 DUP3 GT ISZERO PUSH3 0x1F2 JUMPI PUSH1 0x0 DUP5 DUP5 DUP4 ADD ADD MSTORE JUMPDEST SWAP3 DUP9 ADD MLOAD PUSH1 0x40 SWAP1 SWAP9 ADD MLOAD SWAP3 SWAP10 SWAP8 SWAP9 POP SWAP2 SWAP7 SWAP6 POP POP POP POP POP POP JUMP JUMPDEST PUSH1 0x1 DUP2 DUP2 SHR SWAP1 DUP3 AND DUP1 PUSH3 0x221 JUMPI PUSH1 0x7F DUP3 AND SWAP2 POP JUMPDEST PUSH1 0x20 DUP3 LT DUP2 EQ ISZERO PUSH3 0x243 JUMPI PUSH4 0x4E487B71 PUSH1 0xE0 SHL PUSH1 0x0 MSTORE PUSH1 0x22 PUSH1 0x4 MSTORE PUSH1 0x24 PUSH1 0x0 REVERT JUMPDEST POP SWAP2 SWAP1 POP JUMP JUMPDEST PUSH4 0x4E487B71 PUSH1 0xE0 SHL PUSH1 0x0 MSTORE PUSH1 0x41 PUSH1 0x4 MSTORE PUSH1 0x24 PUSH1 0x0 REVERT JUMPDEST PUSH2 0xD10 DUP1 PUSH3 0x26F PUSH1 0x0 CODECOPY PUSH1 0x0 RETURN INVALID PUSH1 0x80 PUSH1 0x40 MSTORE PUSH1 0x4 CALLDATASIZE LT PUSH2 0xFE JUMPI PUSH1 0x0 CALLDATALOAD PUSH1 0xE0 SHR DUP1 PUSH4 0x7DC379FA GT PUSH2 0x95 JUMPI DUP1 PUSH4 0xC2B6B58C GT PUSH2 0x64 JUMPI DUP1 PUSH4 0xC2B6B58C EQ PUSH2 0x2AC JUMPI DUP1 PUSH4 0xC47F0027 EQ PUSH2 0x2D6 JUMPI DUP1 PUSH4 0xD20BF816 EQ PUSH2 0x2F6 JUMPI DUP1 PUSH4 0xD826F88F EQ PUSH2 0x34D JUMPI DUP1 PUSH4 0xF2673019 EQ PUSH2 0x362 JUMPI PUSH1 0x0 DUP1 REVERT JUMPDEST DUP1 PUSH4 0x7DC379FA EQ PUSH2 0x201 JUMPI DUP1 PUSH4 0x8DA5CB5B EQ PUSH2 0x24C JUMPI DUP1 PUSH4 0xA583B034 EQ PUSH2 0x284 JUMPI DUP1 PUSH4 0xB4291319 EQ PUSH2 0x299 JUMPI PUSH1 0x0 DUP1 REVERT JUMPDEST DUP1 PUSH4 0x21C63A47 GT PUSH2 0xD1 JUMPI DUP1 PUSH4 0x21C63A47 EQ PUSH2 0x194 JUMPI DUP1 PUSH4 0x3D3751AE EQ PUSH2 0x1A9 JUMPI DUP1 PUSH4 0x4ED02622 EQ PUSH2 0x1C9 JUMPI DUP1 PUSH4 0x5E321DFC EQ PUSH2 0x1EB JUMPI PUSH1 0x0 DUP1 REVERT JUMPDEST DUP1 PUSH4 0x6FDDE03 EQ PUSH2 0x103 JUMPI DUP1 PUSH4 0x1209B1F6 EQ PUSH2 0x12E JUMPI DUP1 PUSH4 0x13AF4035 EQ PUSH2 0x152 JUMPI DUP1 PUSH4 0x15981650 EQ PUSH2 0x174 JUMPI JUMPDEST PUSH1 0x0 DUP1 REVERT JUMPDEST CALLVALUE DUP1 ISZERO PUSH2 0x10F JUMPI PUSH1 0x0 DUP1 REVERT JUMPDEST POP PUSH2 0x118 PUSH2 0x382 JUMP JUMPDEST PUSH1 0x40 MLOAD PUSH2 0x125 SWAP2 SWAP1 PUSH2 0xC10 JUMP JUMPDEST PUSH1 0x40 MLOAD DUP1 SWAP2 SUB SWAP1 RETURN JUMPDEST CALLVALUE DUP1 ISZERO PUSH2 0x13A JUMPI PUSH1 0x0 DUP1 REVERT JUMPDEST POP PUSH2 0x144 PUSH1 0x1 SLOAD DUP2 JUMP JUMPDEST PUSH1 0x40 MLOAD SWAP1 DUP2 MSTORE PUSH1 0x20 ADD PUSH2 0x125 JUMP JUMPDEST CALLVALUE DUP1 ISZERO PUSH2 0x15E JUMPI PUSH1 0x0 DUP1 REVERT JUMPDEST POP PUSH2 0x172 PUSH2 0x16D CALLDATASIZE PUSH1 0x4 PUSH2 0xA99 JUMP JUMPDEST PUSH2 0x410 JUMP JUMPDEST STOP JUMPDEST CALLVALUE DUP1 ISZERO PUSH2 0x180 JUMPI PUSH1 0x0 DUP1 REVERT JUMPDEST POP PUSH2 0x172 PUSH2 0x18F CALLDATASIZE PUSH1 0x4 PUSH2 0xB6A JUMP JUMPDEST PUSH2 0x449 JUMP JUMPDEST CALLVALUE DUP1 ISZERO PUSH2 0x1A0 JUMPI PUSH1 0x0 DUP1 REVERT JUMPDEST POP PUSH1 0x5 SLOAD PUSH2 0x144 JUMP JUMPDEST CALLVALUE DUP1 ISZERO PUSH2 0x1B5 JUMPI PUSH1 0x0 DUP1 REVERT JUMPDEST POP PUSH2 0x172 PUSH2 0x1C4 CALLDATASIZE PUSH1 0x4 PUSH2 0xB6A JUMP JUMPDEST PUSH2 0x465 JUMP JUMPDEST CALLVALUE DUP1 ISZERO PUSH2 0x1D5 JUMPI PUSH1 0x0 DUP1 REVERT JUMPDEST POP PUSH2 0x1DE PUSH2 0x481 JUMP JUMPDEST PUSH1 0x40 MLOAD PUSH2 0x125 SWAP2 SWAP1 PUSH2 0xBA5 JUMP JUMPDEST CALLVALUE DUP1 ISZERO PUSH2 0x1F7 JUMPI PUSH1 0x0 DUP1 REVERT JUMPDEST POP PUSH2 0x144 PUSH1 0x2 SLOAD DUP2 JUMP JUMPDEST CALLVALUE DUP1 ISZERO PUSH2 0x20D JUMPI PUSH1 0x0 DUP1 REVERT JUMPDEST POP PUSH2 0x221 PUSH2 0x21C CALLDATASIZE PUSH1 0x4 PUSH2 0xB6A JUMP JUMPDEST PUSH2 0x503 JUMP JUMPDEST PUSH1 0x40 DUP1 MLOAD DUP3 MLOAD DUP2 MSTORE PUSH1 0x20 DUP1 DUP5 ADD MLOAD PUSH1 0x1 PUSH1 0x1 PUSH1 0xA0 SHL SUB AND SWAP1 DUP3 ADD MSTORE SWAP2 DUP2 ADD MLOAD SWAP1 DUP3 ADD MSTORE PUSH1 0x60 ADD PUSH2 0x125 JUMP JUMPDEST CALLVALUE DUP1 ISZERO PUSH2 0x258 JUMPI PUSH1 0x0 DUP1 REVERT JUMPDEST POP PUSH1 0x3 SLOAD PUSH2 0x26C SWAP1 PUSH1 0x1 PUSH1 0x1 PUSH1 0xA0 SHL SUB AND DUP2 JUMP JUMPDEST PUSH1 0x40 MLOAD PUSH1 0x1 PUSH1 0x1 PUSH1 0xA0 SHL SUB SWAP1 SWAP2 AND DUP2 MSTORE PUSH1 0x20 ADD PUSH2 0x125 JUMP JUMPDEST CALLVALUE DUP1 ISZERO PUSH2 0x290 JUMPI PUSH1 0x0 DUP1 REVERT JUMPDEST POP PUSH2 0x144 PUSH2 0x57C JUMP JUMPDEST PUSH2 0x172 PUSH2 0x2A7 CALLDATASIZE PUSH1 0x4 PUSH2 0xB6A JUMP JUMPDEST PUSH2 0x59D JUMP JUMPDEST CALLVALUE DUP1 ISZERO PUSH2 0x2B8 JUMPI PUSH1 0x0 DUP1 REVERT JUMPDEST POP PUSH1 0x0 SLOAD PUSH2 0x2C6 SWAP1 PUSH1 0xFF AND DUP2 JUMP JUMPDEST PUSH1 0x40 MLOAD SWAP1 ISZERO ISZERO DUP2 MSTORE PUSH1 0x20 ADD PUSH2 0x125 JUMP JUMPDEST CALLVALUE DUP1 ISZERO PUSH2 0x2E2 JUMPI PUSH1 0x0 DUP1 REVERT JUMPDEST POP PUSH2 0x172 PUSH2 0x2F1 CALLDATASIZE PUSH1 0x4 PUSH2 0xAC9 JUMP JUMPDEST PUSH2 0x74F JUMP JUMPDEST CALLVALUE DUP1 ISZERO PUSH2 0x302 JUMPI PUSH1 0x0 DUP1 REVERT JUMPDEST POP PUSH1 0x40 DUP1 MLOAD PUSH1 0x60 DUP1 DUP3 ADD DUP4 MSTORE PUSH1 0x0 DUP1 DUP4 MSTORE PUSH1 0x20 DUP1 DUP5 ADD DUP3 SWAP1 MSTORE SWAP3 DUP5 ADD MSTORE DUP3 MLOAD SWAP1 DUP2 ADD DUP4 MSTORE PUSH1 0x6 SLOAD DUP2 MSTORE PUSH1 0x7 SLOAD PUSH1 0x1 PUSH1 0x1 PUSH1 0xA0 SHL SUB AND SWAP2 DUP2 ADD SWAP2 SWAP1 SWAP2 MSTORE PUSH1 0x8 SLOAD SWAP2 DUP2 ADD SWAP2 SWAP1 SWAP2 MSTORE PUSH2 0x221 JUMP JUMPDEST CALLVALUE DUP1 ISZERO PUSH2 0x359 JUMPI PUSH1 0x0 DUP1 REVERT JUMPDEST POP PUSH2 0x172 PUSH2 0x77D JUMP JUMPDEST CALLVALUE DUP1 ISZERO PUSH2 0x36E JUMPI PUSH1 0x0 DUP1 REVERT JUMPDEST POP PUSH2 0x172 PUSH2 0x37D CALLDATASIZE PUSH1 0x4 PUSH2 0xB06 JUMP JUMPDEST PUSH2 0x7E1 JUMP JUMPDEST PUSH1 0x4 DUP1 SLOAD PUSH2 0x38F SWAP1 PUSH2 0xC73 JUMP JUMPDEST DUP1 PUSH1 0x1F ADD PUSH1 0x20 DUP1 SWAP2 DIV MUL PUSH1 0x20 ADD PUSH1 0x40 MLOAD SWAP1 DUP2 ADD PUSH1 0x40 MSTORE DUP1 SWAP3 SWAP2 SWAP1 DUP2 DUP2 MSTORE PUSH1 0x20 ADD DUP3 DUP1 SLOAD PUSH2 0x3BB SWAP1 PUSH2 0xC73 JUMP JUMPDEST DUP1 ISZERO PUSH2 0x408 JUMPI DUP1 PUSH1 0x1F LT PUSH2 0x3DD JUMPI PUSH2 0x100 DUP1 DUP4 SLOAD DIV MUL DUP4 MSTORE SWAP2 PUSH1 0x20 ADD SWAP2 PUSH2 0x408 JUMP JUMPDEST DUP3 ADD SWAP2 SWAP1 PUSH1 0x0 MSTORE PUSH1 0x20 PUSH1 0x0 KECCAK256 SWAP1 JUMPDEST DUP2 SLOAD DUP2 MSTORE SWAP1 PUSH1 0x1 ADD SWAP1 PUSH1 0x20 ADD DUP1 DUP4 GT PUSH2 0x3EB JUMPI DUP3 SWAP1 SUB PUSH1 0x1F AND DUP3 ADD SWAP2 JUMPDEST POP POP POP POP POP DUP2 JUMP JUMPDEST PUSH1 0x3 SLOAD PUSH1 0x1 PUSH1 0x1 PUSH1 0xA0 SHL SUB AND CALLER EQ PUSH2 0x427 JUMPI PUSH1 0x0 DUP1 REVERT JUMPDEST PUSH1 0x3 DUP1 SLOAD PUSH1 0x1 PUSH1 0x1 PUSH1 0xA0 SHL SUB NOT AND PUSH1 0x1 PUSH1 0x1 PUSH1 0xA0 SHL SUB SWAP3 SWAP1 SWAP3 AND SWAP2 SWAP1 SWAP2 OR SWAP1 SSTORE JUMP JUMPDEST PUSH1 0x3 SLOAD PUSH1 0x1 PUSH1 0x1 PUSH1 0xA0 SHL SUB AND CALLER EQ PUSH2 0x460 JUMPI PUSH1 0x0 DUP1 REVERT JUMPDEST PUSH1 0x1 SSTORE JUMP JUMPDEST PUSH1 0x3 SLOAD PUSH1 0x1 PUSH1 0x1 PUSH1 0xA0 SHL SUB AND CALLER EQ PUSH2 0x47C JUMPI PUSH1 0x0 DUP1 REVERT JUMPDEST PUSH1 0x2 SSTORE JUMP JUMPDEST PUSH1 0x60 PUSH1 0x5 DUP1 SLOAD DUP1 PUSH1 0x20 MUL PUSH1 0x20 ADD PUSH1 0x40 MLOAD SWAP1 DUP2 ADD PUSH1 0x40 MSTORE DUP1 SWAP3 SWAP2 SWAP1 DUP2 DUP2 MSTORE PUSH1 0x20 ADD PUSH1 0x0 SWAP1 JUMPDEST DUP3 DUP3 LT ISZERO PUSH2 0x4FA JUMPI PUSH1 0x0 DUP5 DUP2 MSTORE PUSH1 0x20 SWAP1 DUP2 SWAP1 KECCAK256 PUSH1 0x40 DUP1 MLOAD PUSH1 0x60 DUP2 ADD DUP3 MSTORE PUSH1 0x3 DUP7 MUL SWAP1 SWAP3 ADD DUP1 SLOAD DUP4 MSTORE PUSH1 0x1 DUP1 DUP3 ADD SLOAD PUSH1 0x1 PUSH1 0x1 PUSH1 0xA0 SHL SUB AND DUP5 DUP7 ADD MSTORE PUSH1 0x2 SWAP1 SWAP2 ADD SLOAD SWAP2 DUP4 ADD SWAP2 SWAP1 SWAP2 MSTORE SWAP1 DUP4 MSTORE SWAP1 SWAP3 ADD SWAP2 ADD PUSH2 0x4A5 JUMP JUMPDEST POP POP POP POP SWAP1 POP SWAP1 JUMP JUMPDEST PUSH1 0x40 DUP1 MLOAD PUSH1 0x60 DUP2 ADD DUP3 MSTORE PUSH1 0x0 DUP1 DUP3 MSTORE PUSH1 0x20 DUP3 ADD DUP2 SWAP1 MSTORE SWAP2 DUP2 ADD SWAP2 SWAP1 SWAP2 MSTORE PUSH1 0x5 DUP3 DUP2 SLOAD DUP2 LT PUSH2 0x533 JUMPI PUSH2 0x533 PUSH2 0xCAE JUMP JUMPDEST PUSH1 0x0 SWAP2 DUP3 MSTORE PUSH1 0x20 SWAP2 DUP3 SWAP1 KECCAK256 PUSH1 0x40 DUP1 MLOAD PUSH1 0x60 DUP2 ADD DUP3 MSTORE PUSH1 0x3 SWAP1 SWAP4 MUL SWAP1 SWAP2 ADD DUP1 SLOAD DUP4 MSTORE PUSH1 0x1 DUP2 ADD SLOAD PUSH1 0x1 PUSH1 0x1 PUSH1 0xA0 SHL SUB AND SWAP4 DUP4 ADD SWAP4 SWAP1 SWAP4 MSTORE PUSH1 0x2 SWAP1 SWAP3 ADD SLOAD SWAP2 DUP2 ADD SWAP2 SWAP1 SWAP2 MSTORE SWAP3 SWAP2 POP POP JUMP JUMPDEST PUSH1 0x3 SLOAD PUSH1 0x0 SWAP1 PUSH1 0x1 PUSH1 0x1 PUSH1 0xA0 SHL SUB AND CALLER EQ PUSH2 0x596 JUMPI PUSH1 0x0 DUP1 REVERT JUMPDEST POP PUSH1 0x9 SLOAD SWAP1 JUMP JUMPDEST PUSH1 0x0 SLOAD PUSH1 0xFF AND ISZERO PUSH2 0x5AD JUMPI PUSH1 0x0 DUP1 REVERT JUMPDEST PUSH1 0x5 SLOAD PUSH1 0x40 DUP1 MLOAD CALLER PUSH1 0x60 SHL PUSH12 0xFFFFFFFFFFFFFFFFFFFFFFFF NOT AND PUSH1 0x20 DUP3 ADD MSTORE PUSH1 0x34 DUP1 DUP3 ADD SWAP4 SWAP1 SWAP4 MSTORE DUP2 MLOAD DUP1 DUP3 SUB SWAP1 SWAP4 ADD DUP4 MSTORE PUSH1 0x54 DUP2 ADD SWAP1 SWAP2 MSTORE PUSH2 0x5F6 SWAP1 DUP3 SWAP1 TIMESTAMP SWAP1 PUSH1 0x74 ADD PUSH2 0xB83 JUMP JUMPDEST PUSH1 0x40 DUP1 MLOAD DUP1 DUP4 SUB PUSH1 0x1F NOT ADD DUP2 MSTORE PUSH1 0x60 DUP4 ADD DUP3 MSTORE DUP1 MLOAD PUSH1 0x20 DUP1 DUP4 ADD SWAP2 SWAP1 SWAP2 KECCAK256 DUP5 MSTORE CALLER SWAP1 DUP5 ADD DUP2 DUP2 MSTORE DUP5 DUP5 ADD DUP8 DUP2 MSTORE PUSH1 0x5 DUP1 SLOAD PUSH1 0x1 DUP2 ADD DUP3 SSTORE PUSH1 0x0 SWAP2 DUP3 MSTORE DUP8 MLOAD PUSH32 0x36B6384B5ECA791C62761152D0C79BB0604C104A5FB6F4EB0703F3154BB3DB0 PUSH1 0x3 SWAP1 SWAP3 MUL SWAP2 DUP3 ADD SSTORE SWAP3 MLOAD PUSH32 0x36B6384B5ECA791C62761152D0C79BB0604C104A5FB6F4EB0703F3154BB3DB1 DUP5 ADD DUP1 SLOAD PUSH1 0x1 PUSH1 0x1 PUSH1 0xA0 SHL SUB NOT AND PUSH1 0x1 PUSH1 0x1 PUSH1 0xA0 SHL SUB SWAP1 SWAP3 AND SWAP2 SWAP1 SWAP2 OR SWAP1 SSTORE SWAP1 MLOAD PUSH32 0x36B6384B5ECA791C62761152D0C79BB0604C104A5FB6F4EB0703F3154BB3DB2 SWAP1 SWAP3 ADD SWAP2 SWAP1 SWAP2 SSTORE SWAP3 MLOAD SWAP2 SWAP5 POP SWAP2 PUSH32 0xBFED62EB9DA96F495053D1025CCE9833C1EA7D27761DCA02CFEA73F628F23A50 SWAP2 LOG2 PUSH1 0x9 SLOAD DUP2 MLOAD GT ISZERO PUSH2 0x735 JUMPI DUP1 MLOAD PUSH1 0x9 DUP2 SWAP1 SSTORE PUSH1 0x6 SSTORE PUSH1 0x20 DUP2 ADD MLOAD PUSH1 0x7 DUP1 SLOAD PUSH1 0x1 PUSH1 0x1 PUSH1 0xA0 SHL SUB NOT AND PUSH1 0x1 PUSH1 0x1 PUSH1 0xA0 SHL SUB SWAP1 SWAP3 AND SWAP2 SWAP1 SWAP2 OR SWAP1 SSTORE PUSH1 0x40 DUP2 ADD MLOAD PUSH1 0x8 SSTORE JUMPDEST PUSH1 0x2 SLOAD PUSH1 0x5 SLOAD LT PUSH2 0x74A JUMPI PUSH2 0x74A PUSH1 0x1 PUSH2 0x87B JUMP JUMPDEST POP POP POP JUMP JUMPDEST PUSH1 0x3 SLOAD PUSH1 0x1 PUSH1 0x1 PUSH1 0xA0 SHL SUB AND CALLER EQ PUSH2 0x766 JUMPI PUSH1 0x0 DUP1 REVERT JUMPDEST DUP1 MLOAD PUSH2 0x779 SWAP1 PUSH1 0x4 SWAP1 PUSH1 0x20 DUP5 ADD SWAP1 PUSH2 0x8EB JUMP JUMPDEST POP POP JUMP JUMPDEST PUSH1 0x3 SLOAD PUSH1 0x1 PUSH1 0x1 PUSH1 0xA0 SHL SUB AND CALLER EQ PUSH2 0x794 JUMPI PUSH1 0x0 DUP1 REVERT JUMPDEST PUSH2 0x7A0 PUSH1 0x4 PUSH1 0x0 PUSH2 0x96F JUMP JUMPDEST PUSH1 0x0 DUP1 SLOAD PUSH1 0xFF NOT AND DUP2 SSTORE PUSH1 0x1 DUP2 SWAP1 SSTORE PUSH1 0x2 DUP2 SWAP1 SSTORE PUSH1 0x6 DUP2 SWAP1 SSTORE PUSH1 0x7 DUP1 SLOAD PUSH1 0x1 PUSH1 0x1 PUSH1 0xA0 SHL SUB NOT AND SWAP1 SSTORE PUSH1 0x8 DUP2 SWAP1 SSTORE PUSH2 0x7DA SWAP1 PUSH1 0x5 SWAP1 PUSH2 0x9A9 JUMP JUMPDEST PUSH1 0x0 PUSH1 0x9 SSTORE JUMP JUMPDEST PUSH1 0x3 SLOAD PUSH1 0x1 PUSH1 0x1 PUSH1 0xA0 SHL SUB AND CALLER EQ PUSH2 0x7F8 JUMPI PUSH1 0x0 DUP1 REVERT JUMPDEST PUSH2 0x801 DUP5 PUSH2 0x74F JUMP JUMPDEST PUSH2 0x80A DUP4 PUSH2 0x87B JUMP JUMPDEST PUSH2 0x813 DUP3 PUSH2 0x449 JUMP JUMPDEST PUSH2 0x81C DUP2 PUSH2 0x465 JUMP JUMPDEST PUSH32 0x221D3D4161FF7C815E25A84CF3C2EC04F54111BEE80F0B06D345C834581C9DA3 PUSH1 0x40 MLOAD PUSH2 0x86D SWAP1 PUSH1 0x20 DUP1 DUP3 MSTORE PUSH1 0xF SWAP1 DUP3 ADD MSTORE PUSH15 0x2930B3333632903AB83230BA32B217 PUSH1 0x89 SHL PUSH1 0x40 DUP3 ADD MSTORE PUSH1 0x60 ADD SWAP1 JUMP JUMPDEST PUSH1 0x40 MLOAD DUP1 SWAP2 SUB SWAP1 LOG1 POP POP POP POP JUMP JUMPDEST PUSH1 0x0 DUP1 SLOAD PUSH1 0xFF NOT AND DUP3 ISZERO ISZERO SWAP1 DUP2 OR SWAP1 SWAP2 SSTORE PUSH1 0xFF AND ISZERO PUSH2 0x8E8 JUMPI PUSH1 0x40 DUP1 MLOAD PUSH1 0x6 SLOAD DUP2 MSTORE PUSH1 0x7 SLOAD PUSH1 0x1 PUSH1 0x1 PUSH1 0xA0 SHL SUB AND PUSH1 0x20 DUP3 ADD MSTORE PUSH1 0x8 SLOAD DUP2 DUP4 ADD MSTORE SWAP1 MLOAD SWAP1 DUP2 SWAP1 SUB PUSH1 0x60 ADD DUP2 KECCAK256 SWAP1 PUSH32 0xF155374BD3D5CF63EDEE6A98DCEFDDB2E72A6DE0457BEE440D6CF0C512F6A01B SWAP1 PUSH1 0x0 SWAP1 LOG2 JUMPDEST POP JUMP JUMPDEST DUP3 DUP1 SLOAD PUSH2 0x8F7 SWAP1 PUSH2 0xC73 JUMP JUMPDEST SWAP1 PUSH1 0x0 MSTORE PUSH1 0x20 PUSH1 0x0 KECCAK256 SWAP1 PUSH1 0x1F ADD PUSH1 0x20 SWAP1 DIV DUP2 ADD SWAP3 DUP3 PUSH2 0x919 JUMPI PUSH1 0x0 DUP6 SSTORE PUSH2 0x95F JUMP JUMPDEST DUP3 PUSH1 0x1F LT PUSH2 0x932 JUMPI DUP1 MLOAD PUSH1 0xFF NOT AND DUP4 DUP1 ADD OR DUP6 SSTORE PUSH2 0x95F JUMP JUMPDEST DUP3 DUP1 ADD PUSH1 0x1 ADD DUP6 SSTORE DUP3 ISZERO PUSH2 0x95F JUMPI SWAP2 DUP3 ADD JUMPDEST DUP3 DUP2 GT ISZERO PUSH2 0x95F JUMPI DUP3 MLOAD DUP3 SSTORE SWAP2 PUSH1 0x20 ADD SWAP2 SWAP1 PUSH1 0x1 ADD SWAP1 PUSH2 0x944 JUMP JUMPDEST POP PUSH2 0x96B SWAP3 SWAP2 POP PUSH2 0x9CA JUMP JUMPDEST POP SWAP1 JUMP JUMPDEST POP DUP1 SLOAD PUSH2 0x97B SWAP1 PUSH2 0xC73 JUMP JUMPDEST PUSH1 0x0 DUP3 SSTORE DUP1 PUSH1 0x1F LT PUSH2 0x98B JUMPI POP POP JUMP JUMPDEST PUSH1 0x1F ADD PUSH1 0x20 SWAP1 DIV SWAP1 PUSH1 0x0 MSTORE PUSH1 0x20 PUSH1 0x0 KECCAK256 SWAP1 DUP2 ADD SWAP1 PUSH2 0x8E8 SWAP2 SWAP1 PUSH2 0x9CA JUMP JUMPDEST POP DUP1 SLOAD PUSH1 0x0 DUP3 SSTORE PUSH1 0x3 MUL SWAP1 PUSH1 0x0 MSTORE PUSH1 0x20 PUSH1 0x0 KECCAK256 SWAP1 DUP2 ADD SWAP1 PUSH2 0x8E8 SWAP2 SWAP1 PUSH2 0x9DF JUMP JUMPDEST JUMPDEST DUP1 DUP3 GT ISZERO PUSH2 0x96B JUMPI PUSH1 0x0 DUP2 SSTORE PUSH1 0x1 ADD PUSH2 0x9CB JUMP JUMPDEST JUMPDEST DUP1 DUP3 GT ISZERO PUSH2 0x96B JUMPI PUSH1 0x0 DUP1 DUP3 SSTORE PUSH1 0x1 DUP3 ADD DUP1 SLOAD PUSH1 0x1 PUSH1 0x1 PUSH1 0xA0 SHL SUB NOT AND SWAP1 SSTORE PUSH1 0x2 DUP3 ADD SSTORE PUSH1 0x3 ADD PUSH2 0x9E0 JUMP JUMPDEST PUSH1 0x0 DUP3 PUSH1 0x1F DUP4 ADD SLT PUSH2 0xA1D JUMPI PUSH1 0x0 DUP1 REVERT JUMPDEST DUP2 CALLDATALOAD PUSH8 0xFFFFFFFFFFFFFFFF DUP1 DUP3 GT ISZERO PUSH2 0xA38 JUMPI PUSH2 0xA38 PUSH2 0xCC4 JUMP JUMPDEST PUSH1 0x40 MLOAD PUSH1 0x1F DUP4 ADD PUSH1 0x1F NOT SWAP1 DUP2 AND PUSH1 0x3F ADD AND DUP2 ADD SWAP1 DUP3 DUP3 GT DUP2 DUP4 LT OR ISZERO PUSH2 0xA60 JUMPI PUSH2 0xA60 PUSH2 0xCC4 JUMP JUMPDEST DUP2 PUSH1 0x40 MSTORE DUP4 DUP2 MSTORE DUP7 PUSH1 0x20 DUP6 DUP9 ADD ADD GT ISZERO PUSH2 0xA79 JUMPI PUSH1 0x0 DUP1 REVERT JUMPDEST DUP4 PUSH1 0x20 DUP8 ADD PUSH1 0x20 DUP4 ADD CALLDATACOPY PUSH1 0x0 PUSH1 0x20 DUP6 DUP4 ADD ADD MSTORE DUP1 SWAP5 POP POP POP POP POP SWAP3 SWAP2 POP POP JUMP JUMPDEST PUSH1 0x0 PUSH1 0x20 DUP3 DUP5 SUB SLT ISZERO PUSH2 0xAAB JUMPI PUSH1 0x0 DUP1 REVERT JUMPDEST DUP2 CALLDATALOAD PUSH1 0x1 PUSH1 0x1 PUSH1 0xA0 SHL SUB DUP2 AND DUP2 EQ PUSH2 0xAC2 JUMPI PUSH1 0x0 DUP1 REVERT JUMPDEST SWAP4 SWAP3 POP POP POP JUMP JUMPDEST PUSH1 0x0 PUSH1 0x20 DUP3 DUP5 SUB SLT ISZERO PUSH2 0xADB JUMPI PUSH1 0x0 DUP1 REVERT JUMPDEST DUP2 CALLDATALOAD PUSH8 0xFFFFFFFFFFFFFFFF DUP2 GT ISZERO PUSH2 0xAF2 JUMPI PUSH1 0x0 DUP1 REVERT JUMPDEST PUSH2 0xAFE DUP5 DUP3 DUP6 ADD PUSH2 0xA0C JUMP JUMPDEST SWAP5 SWAP4 POP POP POP POP JUMP JUMPDEST PUSH1 0x0 DUP1 PUSH1 0x0 DUP1 PUSH1 0x80 DUP6 DUP8 SUB SLT ISZERO PUSH2 0xB1C JUMPI PUSH1 0x0 DUP1 REVERT JUMPDEST DUP5 CALLDATALOAD PUSH8 0xFFFFFFFFFFFFFFFF DUP2 GT ISZERO PUSH2 0xB33 JUMPI PUSH1 0x0 DUP1 REVERT JUMPDEST PUSH2 0xB3F DUP8 DUP3 DUP9 ADD PUSH2 0xA0C JUMP JUMPDEST SWAP5 POP POP PUSH1 0x20 DUP6 ADD CALLDATALOAD DUP1 ISZERO ISZERO DUP2 EQ PUSH2 0xB55 JUMPI PUSH1 0x0 DUP1 REVERT JUMPDEST SWAP4 SWAP7 SWAP4 SWAP6 POP POP POP POP PUSH1 0x40 DUP3 ADD CALLDATALOAD SWAP2 PUSH1 0x60 ADD CALLDATALOAD SWAP1 JUMP JUMPDEST PUSH1 0x0 PUSH1 0x20 DUP3 DUP5 SUB SLT ISZERO PUSH2 0xB7C JUMPI PUSH1 0x0 DUP1 REVERT JUMPDEST POP CALLDATALOAD SWAP2 SWAP1 POP JUMP JUMPDEST PUSH1 0x0 DUP4 MLOAD PUSH2 0xB95 DUP2 DUP5 PUSH1 0x20 DUP9 ADD PUSH2 0xC43 JUMP JUMPDEST SWAP2 SWAP1 SWAP2 ADD SWAP2 DUP3 MSTORE POP PUSH1 0x20 ADD SWAP2 SWAP1 POP JUMP JUMPDEST PUSH1 0x20 DUP1 DUP3 MSTORE DUP3 MLOAD DUP3 DUP3 ADD DUP2 SWAP1 MSTORE PUSH1 0x0 SWAP2 SWAP1 DUP5 DUP3 ADD SWAP1 PUSH1 0x40 DUP6 ADD SWAP1 DUP5 JUMPDEST DUP2 DUP2 LT ISZERO PUSH2 0xC04 JUMPI PUSH2 0xBF1 DUP4 DUP6 MLOAD DUP1 MLOAD DUP3 MSTORE PUSH1 0x20 DUP1 DUP3 ADD MLOAD PUSH1 0x1 PUSH1 0x1 PUSH1 0xA0 SHL SUB AND SWAP1 DUP4 ADD MSTORE PUSH1 0x40 SWAP1 DUP2 ADD MLOAD SWAP2 ADD MSTORE JUMP JUMPDEST SWAP3 DUP5 ADD SWAP3 PUSH1 0x60 SWAP3 SWAP1 SWAP3 ADD SWAP2 PUSH1 0x1 ADD PUSH2 0xBC1 JUMP JUMPDEST POP SWAP1 SWAP7 SWAP6 POP POP POP POP POP POP JUMP JUMPDEST PUSH1 0x20 DUP2 MSTORE PUSH1 0x0 DUP3 MLOAD DUP1 PUSH1 0x20 DUP5 ADD MSTORE PUSH2 0xC2F DUP2 PUSH1 0x40 DUP6 ADD PUSH1 0x20 DUP8 ADD PUSH2 0xC43 JUMP JUMPDEST PUSH1 0x1F ADD PUSH1 0x1F NOT AND SWAP2 SWAP1 SWAP2 ADD PUSH1 0x40 ADD SWAP3 SWAP2 POP POP JUMP JUMPDEST PUSH1 0x0 JUMPDEST DUP4 DUP2 LT ISZERO PUSH2 0xC5E JUMPI DUP2 DUP2 ADD MLOAD DUP4 DUP3 ADD MSTORE PUSH1 0x20 ADD PUSH2 0xC46 JUMP JUMPDEST DUP4 DUP2 GT ISZERO PUSH2 0xC6D JUMPI PUSH1 0x0 DUP5 DUP5 ADD MSTORE JUMPDEST POP POP POP POP JUMP JUMPDEST PUSH1 0x1 DUP2 DUP2 SHR SWAP1 DUP3 AND DUP1 PUSH2 0xC87 JUMPI PUSH1 0x7F DUP3 AND SWAP2 POP JUMPDEST PUSH1 0x20 DUP3 LT DUP2 EQ ISZERO PUSH2 0xCA8 JUMPI PUSH4 0x4E487B71 PUSH1 0xE0 SHL PUSH1 0x0 MSTORE PUSH1 0x22 PUSH1 0x4 MSTORE PUSH1 0x24 PUSH1 0x0 REVERT JUMPDEST POP SWAP2 SWAP1 POP JUMP JUMPDEST PUSH4 0x4E487B71 PUSH1 0xE0 SHL PUSH1 0x0 MSTORE PUSH1 0x32 PUSH1 0x4 MSTORE PUSH1 0x24 PUSH1 0x0 REVERT JUMPDEST PUSH4 0x4E487B71 PUSH1 0xE0 SHL PUSH1 0x0 MSTORE PUSH1 0x41 PUSH1 0x4 MSTORE PUSH1 0x24 PUSH1 0x0 REVERT INVALID LOG2 PUSH5 0x6970667358 0x22 SLT KECCAK256 PUSH28 0x58BA8430DBD0B17ED60CFF00DF3B1A56BAD9BBC783C1839E41A71D38 STOP 0xBB CALLER PUSH5 0x736F6C6343 STOP ADDMOD SMOD STOP CALLER "
        },
        "methodIdentifiers": {
          "addTicket(uint256)": "b4291319",
          "getBiggest()": "a583b034",
          "getTicket(uint256)": "7dc379fa",
          "getTicketCount()": "21c63a47",
          "getTickets()": "4ed02622",
          "getWinningTicket()": "d20bf816",
          "isClosed()": "c2b6b58c",
          "name()": "06fdde03",
          "owner()": "8da5cb5b",
          "reset()": "d826f88f",
          "setName(string)": "c47f0027",
          "setOwner(address)": "13af4035",
          "setTicketLimit(uint256)": "3d3751ae",
          "setTicketPrice(uint256)": "15981650",
          "ticketLimit()": "5e321dfc",
          "ticketPrice()": "1209b1f6",
          "update(string,bool,uint256,uint256)": "f2673019"
        }
      }
    }
  }
}