{
  "_format": "hh-sol-artifact-1",
  "contractName": "Raffle",
  "sourceName": "contracts/Raffle.sol",
  "abi": [
    {
      "inputs": [
        {
          "internalType": "string",
          "name": "_name",
          "type": "string"
        },
        {
          "internalType": "uint256",
          "name": "_ticketPrice",
          "type": "uint256"
        },
        {
          "internalType": "uint256",
          "name": "_ticketLimit",
          "type": "uint256"
        }
      ],
      "stateMutability": "nonpayable",
      "type": "constructor"
    },
    {
      "anonymous": false,
      "inputs": [
        {
          "indexed": true,
          "internalType": "address",
          "name": "winner",
          "type": "address"
        }
      ],
      "name": "Closed",
      "type": "event"
    },
    {
      "anonymous": false,
      "inputs": [
        {
          "indexed": true,
          "internalType": "address",
          "name": "holder",
          "type": "address"
        }
      ],
      "name": "NewTicket",
      "type": "event"
    },
    {
      "anonymous": false,
      "inputs": [
        {
          "indexed": false,
          "internalType": "string",
          "name": "message",
          "type": "string"
        }
      ],
      "name": "Updated",
      "type": "event"
    },
    {
      "inputs": [
        {
          "internalType": "uint256",
          "name": "_size",
          "type": "uint256"
        }
      ],
      "name": "addTicket",
      "outputs": [],
      "stateMutability": "payable",
      "type": "function"
    },
    {
      "inputs": [],
      "name": "getBiggest",
      "outputs": [
        {
          "internalType": "bytes32",
          "name": "",
          "type": "bytes32"
        }
      ],
      "stateMutability": "view",
      "type": "function"
    },
    {
      "inputs": [
        {
          "internalType": "uint256",
          "name": "_index",
          "type": "uint256"
        }
      ],
      "name": "getTicket",
      "outputs": [
        {
          "components": [
            {
              "internalType": "bytes32",
              "name": "id",
              "type": "bytes32"
            },
            {
              "internalType": "address",
              "name": "holder",
              "type": "address"
            },
            {
              "internalType": "uint256",
              "name": "size",
              "type": "uint256"
            }
          ],
          "internalType": "struct Raffle.Ticket",
          "name": "",
          "type": "tuple"
        }
      ],
      "stateMutability": "view",
      "type": "function"
    },
    {
      "inputs": [],
      "name": "getTicketCount",
      "outputs": [
        {
          "internalType": "uint256",
          "name": "",
          "type": "uint256"
        }
      ],
      "stateMutability": "view",
      "type": "function"
    },
    {
      "inputs": [],
      "name": "getTickets",
      "outputs": [
        {
          "components": [
            {
              "internalType": "bytes32",
              "name": "id",
              "type": "bytes32"
            },
            {
              "internalType": "address",
              "name": "holder",
              "type": "address"
            },
            {
              "internalType": "uint256",
              "name": "size",
              "type": "uint256"
            }
          ],
          "internalType": "struct Raffle.Ticket[]",
          "name": "",
          "type": "tuple[]"
        }
      ],
      "stateMutability": "view",
      "type": "function"
    },
    {
      "inputs": [],
      "name": "isClosed",
      "outputs": [
        {
          "internalType": "bool",
          "name": "",
          "type": "bool"
        }
      ],
      "stateMutability": "view",
      "type": "function"
    },
    {
      "inputs": [],
      "name": "name",
      "outputs": [
        {
          "internalType": "string",
          "name": "",
          "type": "string"
        }
      ],
      "stateMutability": "view",
      "type": "function"
    },
    {
      "inputs": [],
      "name": "owner",
      "outputs": [
        {
          "internalType": "address",
          "name": "",
          "type": "address"
        }
      ],
      "stateMutability": "view",
      "type": "function"
    },
    {
      "inputs": [],
      "name": "reset",
      "outputs": [],
      "stateMutability": "nonpayable",
      "type": "function"
    },
    {
      "inputs": [
        {
          "internalType": "string",
          "name": "_name",
          "type": "string"
        }
      ],
      "name": "setName",
      "outputs": [],
      "stateMutability": "nonpayable",
      "type": "function"
    },
    {
      "inputs": [
        {
          "internalType": "address",
          "name": "_owner",
          "type": "address"
        }
      ],
      "name": "setOwner",
      "outputs": [],
      "stateMutability": "nonpayable",
      "type": "function"
    },
    {
      "inputs": [
        {
          "internalType": "uint256",
          "name": "_ticketLimit",
          "type": "uint256"
        }
      ],
      "name": "setTicketLimit",
      "outputs": [],
      "stateMutability": "nonpayable",
      "type": "function"
    },
    {
      "inputs": [
        {
          "internalType": "uint256",
          "name": "_ticketPrice",
          "type": "uint256"
        }
      ],
      "name": "setTicketPrice",
      "outputs": [],
      "stateMutability": "nonpayable",
      "type": "function"
    },
    {
      "inputs": [],
      "name": "ticketLimit",
      "outputs": [
        {
          "internalType": "uint256",
          "name": "",
          "type": "uint256"
        }
      ],
      "stateMutability": "view",
      "type": "function"
    },
    {
      "inputs": [],
      "name": "ticketPrice",
      "outputs": [
        {
          "internalType": "uint256",
          "name": "",
          "type": "uint256"
        }
      ],
      "stateMutability": "view",
      "type": "function"
    },
    {
      "inputs": [
        {
          "internalType": "string",
          "name": "_name",
          "type": "string"
        },
        {
          "internalType": "bool",
          "name": "_isClosed",
          "type": "bool"
        },
        {
          "internalType": "uint256",
          "name": "_ticketPrice",
          "type": "uint256"
        },
        {
          "internalType": "uint256",
          "name": "_ticketLimit",
          "type": "uint256"
        }
      ],
      "name": "update",
      "outputs": [],
      "stateMutability": "nonpayable",
      "type": "function"
    },
    {
      "inputs": [],
      "name": "winner",
      "outputs": [
        {
          "internalType": "address",
          "name": "",
          "type": "address"
        }
      ],
      "stateMutability": "view",
      "type": "function"
    }
  ],
  "bytecode": "0x60806040523480156200001157600080fd5b5060405162000e6838038062000e6883398101604081905262000034916200011c565b82516200004990600590602086019062000076565b50600191909155600255506000805460ff19169055600480546001600160a01b031916331790556200025f565b82805462000084906200020c565b90600052602060002090601f016020900481019282620000a85760008555620000f3565b82601f10620000c357805160ff1916838001178555620000f3565b82800160010185558215620000f3579182015b82811115620000f3578251825591602001919060010190620000d6565b506200010192915062000105565b5090565b5b8082111562000101576000815560010162000106565b6000806000606084860312156200013257600080fd5b83516001600160401b03808211156200014a57600080fd5b818601915086601f8301126200015f57600080fd5b81518181111562000174576200017462000249565b604051601f8201601f19908116603f011681019083821181831017156200019f576200019f62000249565b81604052828152602093508984848701011115620001bc57600080fd5b600091505b82821015620001e05784820184015181830185015290830190620001c1565b82821115620001f25760008484830101525b928801516040909801519299979850919695505050505050565b600181811c908216806200022157607f821691505b602082108114156200024357634e487b7160e01b600052602260045260246000fd5b50919050565b634e487b7160e01b600052604160045260246000fd5b610bf9806200026f6000396000f3fe6080604052600436106100fe5760003560e01c80637dc379fa11610095578063c2b6b58c11610064578063c2b6b58c146102ac578063c47f0027146102d6578063d826f88f146102f6578063dfbf53ae1461030b578063f26730191461032b57600080fd5b80637dc379fa146102015780638da5cb5b1461024c578063a583b03414610284578063b42913191461029957600080fd5b806321c63a47116100d157806321c63a47146101945780633d3751ae146101a95780634ed02622146101c95780635e321dfc146101eb57600080fd5b806306fdde03146101035780631209b1f61461012e57806313af4035146101525780631598165014610174575b600080fd5b34801561010f57600080fd5b5061011861034b565b6040516101259190610b07565b60405180910390f35b34801561013a57600080fd5b5061014460015481565b604051908152602001610125565b34801561015e57600080fd5b5061017261016d3660046109b2565b6103d9565b005b34801561018057600080fd5b5061017261018f366004610a83565b610412565b3480156101a057600080fd5b50600654610144565b3480156101b557600080fd5b506101726101c4366004610a83565b61042e565b3480156101d557600080fd5b506101de61044a565b6040516101259190610a9c565b3480156101f757600080fd5b5061014460025481565b34801561020d57600080fd5b5061022161021c366004610a83565b6104cc565b60408051825181526020808401516001600160a01b0316908201529181015190820152606001610125565b34801561025857600080fd5b5060045461026c906001600160a01b031681565b6040516001600160a01b039091168152602001610125565b34801561029057600080fd5b50600754610144565b6101726102a7366004610a83565b610545565b3480156102b857600080fd5b506000546102c69060ff1681565b6040519015158152602001610125565b3480156102e257600080fd5b506101726102f13660046109e2565b6106db565b34801561030257600080fd5b50610172610709565b34801561031757600080fd5b5060035461026c906001600160a01b031681565b34801561033757600080fd5b50610172610346366004610a1f565b61075b565b6005805461035890610b5c565b80601f016020809104026020016040519081016040528092919081815260200182805461038490610b5c565b80156103d15780601f106103a6576101008083540402835291602001916103d1565b820191906000526020600020905b8154815290600101906020018083116103b457829003601f168201915b505050505081565b6004546001600160a01b031633146103f057600080fd5b600480546001600160a01b0319166001600160a01b0392909216919091179055565b6004546001600160a01b0316331461042957600080fd5b600155565b6004546001600160a01b0316331461044557600080fd5b600255565b60606006805480602002602001604051908101604052809291908181526020016000905b828210156104c35760008481526020908190206040805160608101825260038602909201805483526001808201546001600160a01b03168486015260029091015491830191909152908352909201910161046e565b50505050905090565b6040805160608101825260008082526020820181905291810191909152600682815481106104fc576104fc610b97565b60009182526020918290206040805160608101825260039093029091018054835260018101546001600160a01b0316938301939093526002909201549181019190915292915050565b60005460ff161561055557600080fd5b600154341461056357600080fd5b6006546040516bffffffffffffffffffffffff193360601b166020820152603481019190915260009060540160408051808303601f19018152606083018252805160208083019190912084523390840181815284840187815260068054600181018255600091825287517ff652222313e28459528d920b65115c16c04f3efc82aaedc97be59f3f377c0d3f60039092029182015592517ff652222313e28459528d920b65115c16c04f3efc82aaedc97be59f3f377c0d40840180546001600160a01b0319166001600160a01b0390921691909117905590517ff652222313e28459528d920b65115c16c04f3efc82aaedc97be59f3f377c0d41909201919091559251919450917fbfed62eb9da96f495053d1025cce9833c1ea7d27761dca02cfea73f628f23a5091a2600754815111156106c15780516007556020810151600380546001600160a01b0319166001600160a01b039092169190911790555b600254600654106106d6576106d660016107f5565b505050565b6004546001600160a01b031633146106f257600080fd5b805161070590600590602084019061083b565b5050565b6004546001600160a01b0316331461072057600080fd5b61073d60405180602001604052806000815250600080600a61075b565b610749600660006108bf565b600380546001600160a01b0319169055565b6004546001600160a01b0316331461077257600080fd5b61077b846106db565b610784836107f5565b61078d82610412565b6107968161042e565b7f221d3d4161ff7c815e25a84cf3c2ec04f54111bee80f0b06d345c834581c9da36040516107e7906020808252600f908201526e2930b3333632903ab83230ba32b21760891b604082015260600190565b60405180910390a150505050565b6000805460ff19168215151781556003546040516001600160a01b03909116917f13607bf9d2dd20e1f3a7daf47ab12856f8aad65e6ae7e2c75ace3d0c424a40e891a250565b82805461084790610b5c565b90600052602060002090601f01602090048101928261086957600085556108af565b82601f1061088257805160ff19168380011785556108af565b828001600101855582156108af579182015b828111156108af578251825591602001919060010190610894565b506108bb9291506108e3565b5090565b50805460008255600302906000526020600020908101906108e091906108f8565b50565b5b808211156108bb57600081556001016108e4565b5b808211156108bb5760008082556001820180546001600160a01b031916905560028201556003016108f9565b600082601f83011261093657600080fd5b813567ffffffffffffffff8082111561095157610951610bad565b604051601f8301601f19908116603f0116810190828211818310171561097957610979610bad565b8160405283815286602085880101111561099257600080fd5b836020870160208301376000602085830101528094505050505092915050565b6000602082840312156109c457600080fd5b81356001600160a01b03811681146109db57600080fd5b9392505050565b6000602082840312156109f457600080fd5b813567ffffffffffffffff811115610a0b57600080fd5b610a1784828501610925565b949350505050565b60008060008060808587031215610a3557600080fd5b843567ffffffffffffffff811115610a4c57600080fd5b610a5887828801610925565b94505060208501358015158114610a6e57600080fd5b93969395505050506040820135916060013590565b600060208284031215610a9557600080fd5b5035919050565b6020808252825182820181905260009190848201906040850190845b81811015610afb57610ae8838551805182526020808201516001600160a01b031690830152604090810151910152565b9284019260609290920191600101610ab8565b50909695505050505050565b600060208083528351808285015260005b81811015610b3457858101830151858201604001528201610b18565b81811115610b46576000604083870101525b50601f01601f1916929092016040019392505050565b600181811c90821680610b7057607f821691505b60208210811415610b9157634e487b7160e01b600052602260045260246000fd5b50919050565b634e487b7160e01b600052603260045260246000fd5b634e487b7160e01b600052604160045260246000fdfea26469706673582212207230cc4ccfc6fa614e083f31d710445bed15ddd3b23ff41213136b60282c136464736f6c63430008070033",
  "linkReferences": {},
  "deployedLinkReferences": {}
}