{
  "_format": "hh-sol-artifact-1",
  "contractName": "Raffle",
  "sourceName": "contracts/Raffle.sol",
  "abi": [
    {
      "inputs": [
        {
          "internalType": "string",
          "name": "_name",
          "type": "string"
        },
        {
          "internalType": "uint256",
          "name": "_ticketPrice",
          "type": "uint256"
        },
        {
          "internalType": "uint256",
          "name": "_ticketLimit",
          "type": "uint256"
        }
      ],
      "stateMutability": "nonpayable",
      "type": "constructor"
    },
    {
      "anonymous": false,
      "inputs": [
        {
          "components": [
            {
              "internalType": "bytes32",
              "name": "id",
              "type": "bytes32"
            },
            {
              "internalType": "address",
              "name": "holder",
              "type": "address"
            },
            {
              "internalType": "uint256",
              "name": "size",
              "type": "uint256"
            }
          ],
          "indexed": true,
          "internalType": "struct Raffle.Ticket",
          "name": "winningTicket",
          "type": "tuple"
        }
      ],
      "name": "Closed",
      "type": "event"
    },
    {
      "anonymous": false,
      "inputs": [
        {
          "indexed": true,
          "internalType": "address",
          "name": "holder",
          "type": "address"
        }
      ],
      "name": "NewTicket",
      "type": "event"
    },
    {
      "anonymous": false,
      "inputs": [
        {
          "indexed": false,
          "internalType": "string",
          "name": "message",
          "type": "string"
        }
      ],
      "name": "Updated",
      "type": "event"
    },
    {
      "inputs": [
        {
          "internalType": "uint256",
          "name": "_size",
          "type": "uint256"
        }
      ],
      "name": "addTicket",
      "outputs": [],
      "stateMutability": "payable",
      "type": "function"
    },
    {
      "inputs": [],
      "name": "getBiggest",
      "outputs": [
        {
          "internalType": "bytes32",
          "name": "",
          "type": "bytes32"
        }
      ],
      "stateMutability": "view",
      "type": "function"
    },
    {
      "inputs": [
        {
          "internalType": "uint256",
          "name": "_index",
          "type": "uint256"
        }
      ],
      "name": "getTicket",
      "outputs": [
        {
          "components": [
            {
              "internalType": "bytes32",
              "name": "id",
              "type": "bytes32"
            },
            {
              "internalType": "address",
              "name": "holder",
              "type": "address"
            },
            {
              "internalType": "uint256",
              "name": "size",
              "type": "uint256"
            }
          ],
          "internalType": "struct Raffle.Ticket",
          "name": "",
          "type": "tuple"
        }
      ],
      "stateMutability": "view",
      "type": "function"
    },
    {
      "inputs": [],
      "name": "getTicketCount",
      "outputs": [
        {
          "internalType": "uint256",
          "name": "",
          "type": "uint256"
        }
      ],
      "stateMutability": "view",
      "type": "function"
    },
    {
      "inputs": [],
      "name": "getTickets",
      "outputs": [
        {
          "components": [
            {
              "internalType": "bytes32",
              "name": "id",
              "type": "bytes32"
            },
            {
              "internalType": "address",
              "name": "holder",
              "type": "address"
            },
            {
              "internalType": "uint256",
              "name": "size",
              "type": "uint256"
            }
          ],
          "internalType": "struct Raffle.Ticket[]",
          "name": "",
          "type": "tuple[]"
        }
      ],
      "stateMutability": "view",
      "type": "function"
    },
    {
      "inputs": [],
      "name": "getWinningTicket",
      "outputs": [
        {
          "components": [
            {
              "internalType": "bytes32",
              "name": "id",
              "type": "bytes32"
            },
            {
              "internalType": "address",
              "name": "holder",
              "type": "address"
            },
            {
              "internalType": "uint256",
              "name": "size",
              "type": "uint256"
            }
          ],
          "internalType": "struct Raffle.Ticket",
          "name": "",
          "type": "tuple"
        }
      ],
      "stateMutability": "view",
      "type": "function"
    },
    {
      "inputs": [],
      "name": "isClosed",
      "outputs": [
        {
          "internalType": "bool",
          "name": "",
          "type": "bool"
        }
      ],
      "stateMutability": "view",
      "type": "function"
    },
    {
      "inputs": [],
      "name": "name",
      "outputs": [
        {
          "internalType": "string",
          "name": "",
          "type": "string"
        }
      ],
      "stateMutability": "view",
      "type": "function"
    },
    {
      "inputs": [],
      "name": "owner",
      "outputs": [
        {
          "internalType": "address",
          "name": "",
          "type": "address"
        }
      ],
      "stateMutability": "view",
      "type": "function"
    },
    {
      "inputs": [],
      "name": "reset",
      "outputs": [],
      "stateMutability": "nonpayable",
      "type": "function"
    },
    {
      "inputs": [
        {
          "internalType": "string",
          "name": "_name",
          "type": "string"
        }
      ],
      "name": "setName",
      "outputs": [],
      "stateMutability": "nonpayable",
      "type": "function"
    },
    {
      "inputs": [
        {
          "internalType": "address",
          "name": "_owner",
          "type": "address"
        }
      ],
      "name": "setOwner",
      "outputs": [],
      "stateMutability": "nonpayable",
      "type": "function"
    },
    {
      "inputs": [
        {
          "internalType": "uint256",
          "name": "_ticketLimit",
          "type": "uint256"
        }
      ],
      "name": "setTicketLimit",
      "outputs": [],
      "stateMutability": "nonpayable",
      "type": "function"
    },
    {
      "inputs": [
        {
          "internalType": "uint256",
          "name": "_ticketPrice",
          "type": "uint256"
        }
      ],
      "name": "setTicketPrice",
      "outputs": [],
      "stateMutability": "nonpayable",
      "type": "function"
    },
    {
      "inputs": [],
      "name": "ticketLimit",
      "outputs": [
        {
          "internalType": "uint256",
          "name": "",
          "type": "uint256"
        }
      ],
      "stateMutability": "view",
      "type": "function"
    },
    {
      "inputs": [],
      "name": "ticketPrice",
      "outputs": [
        {
          "internalType": "uint256",
          "name": "",
          "type": "uint256"
        }
      ],
      "stateMutability": "view",
      "type": "function"
    },
    {
      "inputs": [
        {
          "internalType": "string",
          "name": "_name",
          "type": "string"
        },
        {
          "internalType": "bool",
          "name": "_isClosed",
          "type": "bool"
        },
        {
          "internalType": "uint256",
          "name": "_ticketPrice",
          "type": "uint256"
        },
        {
          "internalType": "uint256",
          "name": "_ticketLimit",
          "type": "uint256"
        }
      ],
      "name": "update",
      "outputs": [],
      "stateMutability": "nonpayable",
      "type": "function"
    }
  ],
  "bytecode": "0x60806040523480156200001157600080fd5b5060405162000f7f38038062000f7f83398101604081905262000034916200011c565b82516200004990600490602086019062000076565b50600191909155600255506000805460ff19169055600380546001600160a01b031916331790556200025f565b82805462000084906200020c565b90600052602060002090601f016020900481019282620000a85760008555620000f3565b82601f10620000c357805160ff1916838001178555620000f3565b82800160010185558215620000f3579182015b82811115620000f3578251825591602001919060010190620000d6565b506200010192915062000105565b5090565b5b8082111562000101576000815560010162000106565b6000806000606084860312156200013257600080fd5b83516001600160401b03808211156200014a57600080fd5b818601915086601f8301126200015f57600080fd5b81518181111562000174576200017462000249565b604051601f8201601f19908116603f011681019083821181831017156200019f576200019f62000249565b81604052828152602093508984848701011115620001bc57600080fd5b600091505b82821015620001e05784820184015181830185015290830190620001c1565b82821115620001f25760008484830101525b928801516040909801519299979850919695505050505050565b600181811c908216806200022157607f821691505b602082108114156200024357634e487b7160e01b600052602260045260246000fd5b50919050565b634e487b7160e01b600052604160045260246000fd5b610d10806200026f6000396000f3fe6080604052600436106100fe5760003560e01c80637dc379fa11610095578063c2b6b58c11610064578063c2b6b58c146102ac578063c47f0027146102d6578063d20bf816146102f6578063d826f88f1461034d578063f26730191461036257600080fd5b80637dc379fa146102015780638da5cb5b1461024c578063a583b03414610284578063b42913191461029957600080fd5b806321c63a47116100d157806321c63a47146101945780633d3751ae146101a95780634ed02622146101c95780635e321dfc146101eb57600080fd5b806306fdde03146101035780631209b1f61461012e57806313af4035146101525780631598165014610174575b600080fd5b34801561010f57600080fd5b50610118610382565b6040516101259190610c10565b60405180910390f35b34801561013a57600080fd5b5061014460015481565b604051908152602001610125565b34801561015e57600080fd5b5061017261016d366004610a99565b610410565b005b34801561018057600080fd5b5061017261018f366004610b6a565b610449565b3480156101a057600080fd5b50600554610144565b3480156101b557600080fd5b506101726101c4366004610b6a565b610465565b3480156101d557600080fd5b506101de610481565b6040516101259190610ba5565b3480156101f757600080fd5b5061014460025481565b34801561020d57600080fd5b5061022161021c366004610b6a565b610503565b60408051825181526020808401516001600160a01b0316908201529181015190820152606001610125565b34801561025857600080fd5b5060035461026c906001600160a01b031681565b6040516001600160a01b039091168152602001610125565b34801561029057600080fd5b5061014461057c565b6101726102a7366004610b6a565b61059d565b3480156102b857600080fd5b506000546102c69060ff1681565b6040519015158152602001610125565b3480156102e257600080fd5b506101726102f1366004610ac9565b61074f565b34801561030257600080fd5b50604080516060808201835260008083526020808401829052928401528251908101835260065481526007546001600160a01b03169181019190915260085491810191909152610221565b34801561035957600080fd5b5061017261077d565b34801561036e57600080fd5b5061017261037d366004610b06565b6107e1565b6004805461038f90610c73565b80601f01602080910402602001604051908101604052809291908181526020018280546103bb90610c73565b80156104085780601f106103dd57610100808354040283529160200191610408565b820191906000526020600020905b8154815290600101906020018083116103eb57829003601f168201915b505050505081565b6003546001600160a01b0316331461042757600080fd5b600380546001600160a01b0319166001600160a01b0392909216919091179055565b6003546001600160a01b0316331461046057600080fd5b600155565b6003546001600160a01b0316331461047c57600080fd5b600255565b60606005805480602002602001604051908101604052809291908181526020016000905b828210156104fa5760008481526020908190206040805160608101825260038602909201805483526001808201546001600160a01b0316848601526002909101549183019190915290835290920191016104a5565b50505050905090565b60408051606081018252600080825260208201819052918101919091526005828154811061053357610533610cae565b60009182526020918290206040805160608101825260039093029091018054835260018101546001600160a01b0316938301939093526002909201549181019190915292915050565b6003546000906001600160a01b0316331461059657600080fd5b5060095490565b60005460ff16156105ad57600080fd5b600554604080513360601b6bffffffffffffffffffffffff1916602082015260348082019390935281518082039093018352605481019091526105f69082904290607401610b83565b60408051808303601f19018152606083018252805160208083019190912084523390840181815284840187815260058054600181018255600091825287517f036b6384b5eca791c62761152d0c79bb0604c104a5fb6f4eb0703f3154bb3db060039092029182015592517f036b6384b5eca791c62761152d0c79bb0604c104a5fb6f4eb0703f3154bb3db1840180546001600160a01b0319166001600160a01b0390921691909117905590517f036b6384b5eca791c62761152d0c79bb0604c104a5fb6f4eb0703f3154bb3db2909201919091559251919450917fbfed62eb9da96f495053d1025cce9833c1ea7d27761dca02cfea73f628f23a5091a26009548151111561073557805160098190556006556020810151600780546001600160a01b0319166001600160a01b0390921691909117905560408101516008555b6002546005541061074a5761074a600161087b565b505050565b6003546001600160a01b0316331461076657600080fd5b80516107799060049060208401906108eb565b5050565b6003546001600160a01b0316331461079457600080fd5b6107a06004600061096f565b6000805460ff19168155600181905560028190556006819055600780546001600160a01b031916905560088190556107da906005906109a9565b6000600955565b6003546001600160a01b031633146107f857600080fd5b6108018461074f565b61080a8361087b565b61081382610449565b61081c81610465565b7f221d3d4161ff7c815e25a84cf3c2ec04f54111bee80f0b06d345c834581c9da360405161086d906020808252600f908201526e2930b3333632903ab83230ba32b21760891b604082015260600190565b60405180910390a150505050565b6000805460ff191682151590811790915560ff16156108e8576040805160065481526007546001600160a01b03166020820152600854818301529051908190036060018120907ff155374bd3d5cf63edee6a98dcefddb2e72a6de0457bee440d6cf0c512f6a01b90600090a25b50565b8280546108f790610c73565b90600052602060002090601f016020900481019282610919576000855561095f565b82601f1061093257805160ff191683800117855561095f565b8280016001018555821561095f579182015b8281111561095f578251825591602001919060010190610944565b5061096b9291506109ca565b5090565b50805461097b90610c73565b6000825580601f1061098b575050565b601f0160209004906000526020600020908101906108e891906109ca565b50805460008255600302906000526020600020908101906108e891906109df565b5b8082111561096b57600081556001016109cb565b5b8082111561096b5760008082556001820180546001600160a01b031916905560028201556003016109e0565b600082601f830112610a1d57600080fd5b813567ffffffffffffffff80821115610a3857610a38610cc4565b604051601f8301601f19908116603f01168101908282118183101715610a6057610a60610cc4565b81604052838152866020858801011115610a7957600080fd5b836020870160208301376000602085830101528094505050505092915050565b600060208284031215610aab57600080fd5b81356001600160a01b0381168114610ac257600080fd5b9392505050565b600060208284031215610adb57600080fd5b813567ffffffffffffffff811115610af257600080fd5b610afe84828501610a0c565b949350505050565b60008060008060808587031215610b1c57600080fd5b843567ffffffffffffffff811115610b3357600080fd5b610b3f87828801610a0c565b94505060208501358015158114610b5557600080fd5b93969395505050506040820135916060013590565b600060208284031215610b7c57600080fd5b5035919050565b60008351610b95818460208801610c43565b9190910191825250602001919050565b6020808252825182820181905260009190848201906040850190845b81811015610c0457610bf1838551805182526020808201516001600160a01b031690830152604090810151910152565b9284019260609290920191600101610bc1565b50909695505050505050565b6020815260008251806020840152610c2f816040850160208701610c43565b601f01601f19169190910160400192915050565b60005b83811015610c5e578181015183820152602001610c46565b83811115610c6d576000848401525b50505050565b600181811c90821680610c8757607f821691505b60208210811415610ca857634e487b7160e01b600052602260045260246000fd5b50919050565b634e487b7160e01b600052603260045260246000fd5b634e487b7160e01b600052604160045260246000fdfea26469706673582212207b58ba8430dbd0b17ed60cff00df3b1a56bad9bbc783c1839e41a71d3800bb3364736f6c63430008070033",
  "linkReferences": {},
  "deployedLinkReferences": {}
}