{
  "_format": "hh-sol-artifact-1",
  "contractName": "Raffle",
  "sourceName": "contracts/Raffle.sol",
  "abi": [
    {
      "inputs": [
        {
          "internalType": "string",
          "name": "_name",
          "type": "string"
        },
        {
          "internalType": "uint256",
          "name": "_ticketPrice",
          "type": "uint256"
        },
        {
          "internalType": "uint256",
          "name": "_ticketLimit",
          "type": "uint256"
        }
      ],
      "stateMutability": "nonpayable",
      "type": "constructor"
    },
    {
      "anonymous": false,
      "inputs": [
        {
          "indexed": true,
          "internalType": "address",
          "name": "winner",
          "type": "address"
        }
      ],
      "name": "Closed",
      "type": "event"
    },
    {
      "anonymous": false,
      "inputs": [
        {
          "indexed": true,
          "internalType": "address",
          "name": "holder",
          "type": "address"
        }
      ],
      "name": "NewTicket",
      "type": "event"
    },
    {
      "anonymous": false,
      "inputs": [
        {
          "indexed": false,
          "internalType": "string",
          "name": "message",
          "type": "string"
        }
      ],
      "name": "Updated",
      "type": "event"
    },
    {
      "inputs": [
        {
          "internalType": "uint256",
          "name": "_size",
          "type": "uint256"
        }
      ],
      "name": "addTicket",
      "outputs": [],
      "stateMutability": "payable",
      "type": "function"
    },
    {
      "inputs": [],
      "name": "getBiggest",
      "outputs": [
        {
          "internalType": "bytes32",
          "name": "",
          "type": "bytes32"
        }
      ],
      "stateMutability": "view",
      "type": "function"
    },
    {
      "inputs": [
        {
          "internalType": "uint256",
          "name": "_index",
          "type": "uint256"
        }
      ],
      "name": "getTicket",
      "outputs": [
        {
          "components": [
            {
              "internalType": "bytes32",
              "name": "id",
              "type": "bytes32"
            },
            {
              "internalType": "address",
              "name": "holder",
              "type": "address"
            },
            {
              "internalType": "uint256",
              "name": "size",
              "type": "uint256"
            }
          ],
          "internalType": "struct Raffle.Ticket",
          "name": "",
          "type": "tuple"
        }
      ],
      "stateMutability": "view",
      "type": "function"
    },
    {
      "inputs": [],
      "name": "getTicketCount",
      "outputs": [
        {
          "internalType": "uint256",
          "name": "",
          "type": "uint256"
        }
      ],
      "stateMutability": "view",
      "type": "function"
    },
    {
      "inputs": [],
      "name": "getTickets",
      "outputs": [
        {
          "components": [
            {
              "internalType": "bytes32",
              "name": "id",
              "type": "bytes32"
            },
            {
              "internalType": "address",
              "name": "holder",
              "type": "address"
            },
            {
              "internalType": "uint256",
              "name": "size",
              "type": "uint256"
            }
          ],
          "internalType": "struct Raffle.Ticket[]",
          "name": "",
          "type": "tuple[]"
        }
      ],
      "stateMutability": "view",
      "type": "function"
    },
    {
      "inputs": [],
      "name": "isClosed",
      "outputs": [
        {
          "internalType": "bool",
          "name": "",
          "type": "bool"
        }
      ],
      "stateMutability": "view",
      "type": "function"
    },
    {
      "inputs": [],
      "name": "name",
      "outputs": [
        {
          "internalType": "string",
          "name": "",
          "type": "string"
        }
      ],
      "stateMutability": "view",
      "type": "function"
    },
    {
      "inputs": [],
      "name": "owner",
      "outputs": [
        {
          "internalType": "address",
          "name": "",
          "type": "address"
        }
      ],
      "stateMutability": "view",
      "type": "function"
    },
    {
      "inputs": [],
      "name": "reset",
      "outputs": [],
      "stateMutability": "nonpayable",
      "type": "function"
    },
    {
      "inputs": [
        {
          "internalType": "string",
          "name": "_name",
          "type": "string"
        }
      ],
      "name": "setName",
      "outputs": [],
      "stateMutability": "nonpayable",
      "type": "function"
    },
    {
      "inputs": [
        {
          "internalType": "address",
          "name": "_owner",
          "type": "address"
        }
      ],
      "name": "setOwner",
      "outputs": [],
      "stateMutability": "nonpayable",
      "type": "function"
    },
    {
      "inputs": [
        {
          "internalType": "uint256",
          "name": "_ticketLimit",
          "type": "uint256"
        }
      ],
      "name": "setTicketLimit",
      "outputs": [],
      "stateMutability": "nonpayable",
      "type": "function"
    },
    {
      "inputs": [
        {
          "internalType": "uint256",
          "name": "_ticketPrice",
          "type": "uint256"
        }
      ],
      "name": "setTicketPrice",
      "outputs": [],
      "stateMutability": "nonpayable",
      "type": "function"
    },
    {
      "inputs": [],
      "name": "ticketLimit",
      "outputs": [
        {
          "internalType": "uint256",
          "name": "",
          "type": "uint256"
        }
      ],
      "stateMutability": "view",
      "type": "function"
    },
    {
      "inputs": [],
      "name": "ticketPrice",
      "outputs": [
        {
          "internalType": "uint256",
          "name": "",
          "type": "uint256"
        }
      ],
      "stateMutability": "view",
      "type": "function"
    },
    {
      "inputs": [
        {
          "internalType": "string",
          "name": "_name",
          "type": "string"
        },
        {
          "internalType": "bool",
          "name": "_isClosed",
          "type": "bool"
        },
        {
          "internalType": "uint256",
          "name": "_ticketPrice",
          "type": "uint256"
        },
        {
          "internalType": "uint256",
          "name": "_ticketLimit",
          "type": "uint256"
        }
      ],
      "name": "update",
      "outputs": [],
      "stateMutability": "nonpayable",
      "type": "function"
    },
    {
      "inputs": [],
      "name": "winner",
      "outputs": [
        {
          "internalType": "address",
          "name": "",
          "type": "address"
        }
      ],
      "stateMutability": "view",
      "type": "function"
    }
  ],
  "bytecode": "0x60806040523480156200001157600080fd5b5060405162000f2438038062000f2483398101604081905262000034916200011c565b82516200004990600590602086019062000076565b50600191909155600255506000805460ff19169055600480546001600160a01b031916331790556200025f565b82805462000084906200020c565b90600052602060002090601f016020900481019282620000a85760008555620000f3565b82601f10620000c357805160ff1916838001178555620000f3565b82800160010185558215620000f3579182015b82811115620000f3578251825591602001919060010190620000d6565b506200010192915062000105565b5090565b5b8082111562000101576000815560010162000106565b6000806000606084860312156200013257600080fd5b83516001600160401b03808211156200014a57600080fd5b818601915086601f8301126200015f57600080fd5b81518181111562000174576200017462000249565b604051601f8201601f19908116603f011681019083821181831017156200019f576200019f62000249565b81604052828152602093508984848701011115620001bc57600080fd5b600091505b82821015620001e05784820184015181830185015290830190620001c1565b82821115620001f25760008484830101525b928801516040909801519299979850919695505050505050565b600181811c908216806200022157607f821691505b602082108114156200024357634e487b7160e01b600052602260045260246000fd5b50919050565b634e487b7160e01b600052604160045260246000fd5b610cb5806200026f6000396000f3fe6080604052600436106100fe5760003560e01c80637dc379fa11610095578063c2b6b58c11610064578063c2b6b58c146102ac578063c47f0027146102d6578063d826f88f146102f6578063dfbf53ae1461030b578063f26730191461032b57600080fd5b80637dc379fa146102015780638da5cb5b1461024c578063a583b03414610284578063b42913191461029957600080fd5b806321c63a47116100d157806321c63a47146101945780633d3751ae146101a95780634ed02622146101c95780635e321dfc146101eb57600080fd5b806306fdde03146101035780631209b1f61461012e57806313af4035146101525780631598165014610174575b600080fd5b34801561010f57600080fd5b5061011861034b565b6040516101259190610bb5565b60405180910390f35b34801561013a57600080fd5b5061014460015481565b604051908152602001610125565b34801561015e57600080fd5b5061017261016d366004610a3e565b6103d9565b005b34801561018057600080fd5b5061017261018f366004610b0f565b610412565b3480156101a057600080fd5b50600654610144565b3480156101b557600080fd5b506101726101c4366004610b0f565b61042e565b3480156101d557600080fd5b506101de61044a565b6040516101259190610b4a565b3480156101f757600080fd5b5061014460025481565b34801561020d57600080fd5b5061022161021c366004610b0f565b6104cc565b60408051825181526020808401516001600160a01b0316908201529181015190820152606001610125565b34801561025857600080fd5b5060045461026c906001600160a01b031681565b6040516001600160a01b039091168152602001610125565b34801561029057600080fd5b50610144610545565b6101726102a7366004610b0f565b610566565b3480156102b857600080fd5b506000546102c69060ff1681565b6040519015158152602001610125565b3480156102e257600080fd5b506101726102f1366004610a6e565b610719565b34801561030257600080fd5b50610172610747565b34801561031757600080fd5b5060035461026c906001600160a01b031681565b34801561033757600080fd5b50610172610346366004610aab565b6107a1565b6005805461035890610c18565b80601f016020809104026020016040519081016040528092919081815260200182805461038490610c18565b80156103d15780601f106103a6576101008083540402835291602001916103d1565b820191906000526020600020905b8154815290600101906020018083116103b457829003601f168201915b505050505081565b6004546001600160a01b031633146103f057600080fd5b600480546001600160a01b0319166001600160a01b0392909216919091179055565b6004546001600160a01b0316331461042957600080fd5b600155565b6004546001600160a01b0316331461044557600080fd5b600255565b60606006805480602002602001604051908101604052809291908181526020016000905b828210156104c35760008481526020908190206040805160608101825260038602909201805483526001808201546001600160a01b03168486015260029091015491830191909152908352909201910161046e565b50505050905090565b6040805160608101825260008082526020820181905291810191909152600682815481106104fc576104fc610c53565b60009182526020918290206040805160608101825260039093029091018054835260018101546001600160a01b0316938301939093526002909201549181019190915292915050565b6004546000906001600160a01b0316331461055f57600080fd5b5060075490565b60005460ff161561057657600080fd5b600154341461058457600080fd5b600654604080513360601b6bffffffffffffffffffffffff1916602082015260348082019390935281518082039093018352605481019091526105cd9082904290607401610b28565b60408051808303601f19018152606083018252805160208083019190912084523390840181815284840187815260068054600181018255600091825287517ff652222313e28459528d920b65115c16c04f3efc82aaedc97be59f3f377c0d3f60039092029182015592517ff652222313e28459528d920b65115c16c04f3efc82aaedc97be59f3f377c0d40840180546001600160a01b0319166001600160a01b0390921691909117905590517ff652222313e28459528d920b65115c16c04f3efc82aaedc97be59f3f377c0d41909201919091559251919450917fbfed62eb9da96f495053d1025cce9833c1ea7d27761dca02cfea73f628f23a5091a2600754815111156106ff5780516007556020810151600380546001600160a01b0319166001600160a01b039092169190911790555b6002546006541061071457610714600161083b565b505050565b6004546001600160a01b0316331461073057600080fd5b8051610743906005906020840190610890565b5050565b6004546001600160a01b0316331461075e57600080fd5b61076a60056000610914565b6000805460ff1916815560018190556002819055600380546001600160a01b031916905561079a9060069061094e565b6000600755565b6004546001600160a01b031633146107b857600080fd5b6107c184610719565b6107ca8361083b565b6107d382610412565b6107dc8161042e565b7f221d3d4161ff7c815e25a84cf3c2ec04f54111bee80f0b06d345c834581c9da360405161082d906020808252600f908201526e2930b3333632903ab83230ba32b21760891b604082015260600190565b60405180910390a150505050565b6000805460ff191682151590811790915560ff161561088d576003546040516001600160a01b03909116907f13607bf9d2dd20e1f3a7daf47ab12856f8aad65e6ae7e2c75ace3d0c424a40e890600090a25b50565b82805461089c90610c18565b90600052602060002090601f0160209004810192826108be5760008555610904565b82601f106108d757805160ff1916838001178555610904565b82800160010185558215610904579182015b828111156109045782518255916020019190600101906108e9565b5061091092915061096f565b5090565b50805461092090610c18565b6000825580601f10610930575050565b601f01602090049060005260206000209081019061088d919061096f565b508054600082556003029060005260206000209081019061088d9190610984565b5b808211156109105760008155600101610970565b5b808211156109105760008082556001820180546001600160a01b03191690556002820155600301610985565b600082601f8301126109c257600080fd5b813567ffffffffffffffff808211156109dd576109dd610c69565b604051601f8301601f19908116603f01168101908282118183101715610a0557610a05610c69565b81604052838152866020858801011115610a1e57600080fd5b836020870160208301376000602085830101528094505050505092915050565b600060208284031215610a5057600080fd5b81356001600160a01b0381168114610a6757600080fd5b9392505050565b600060208284031215610a8057600080fd5b813567ffffffffffffffff811115610a9757600080fd5b610aa3848285016109b1565b949350505050565b60008060008060808587031215610ac157600080fd5b843567ffffffffffffffff811115610ad857600080fd5b610ae4878288016109b1565b94505060208501358015158114610afa57600080fd5b93969395505050506040820135916060013590565b600060208284031215610b2157600080fd5b5035919050565b60008351610b3a818460208801610be8565b9190910191825250602001919050565b6020808252825182820181905260009190848201906040850190845b81811015610ba957610b96838551805182526020808201516001600160a01b031690830152604090810151910152565b9284019260609290920191600101610b66565b50909695505050505050565b6020815260008251806020840152610bd4816040850160208701610be8565b601f01601f19169190910160400192915050565b60005b83811015610c03578181015183820152602001610beb565b83811115610c12576000848401525b50505050565b600181811c90821680610c2c57607f821691505b60208210811415610c4d57634e487b7160e01b600052602260045260246000fd5b50919050565b634e487b7160e01b600052603260045260246000fd5b634e487b7160e01b600052604160045260246000fdfea264697066735822122022dafd860e612ca0990ac1f9f0e58ec9d8aa3af6bed9124e95e0c75435c668fe64736f6c63430008070033",
  "linkReferences": {},
  "deployedLinkReferences": {}
}